S00E00004761726167652E73726563CF
S11300000C942A000C9438070C9447000C94470075
S11300100C9447000C94D5050C9447000C944700AD
S11300200C9447000C9447000C9447000C949207DE
S11300300C9447000C9447000C9447000C94470020
S11300400C9447000C9447000C9447000C94470010
S11300500C94470011241FBECFE5D8E0DEBFCDBF0E
S113006010E0A0E6B0E0E0E7F4E102C005900D92F4
S1130070AE3AB107D9F710E0AEEAB0E001C01D9284
S1130080A63BB107E1F70E94AB030C94360A0C942B
S11300900000379A3F9A3E9A329A319A0895369AD6
S11300A03699FECF84B190E045B1342F20E0822B05
S11300B0932B0895843409F471C0853448F4823450
S11300C099F1833408F04DC0813409F083C00FC026
S11300D0823651F1833620F4813609F07BC007C0A3
S11300E0833609F43EC0843609F074C057C04130E9
S11300F069F42AB381E090E0AC0102C0440F551FBB
S11301006A95E2F7BA01622B6ABB08952AB381E0CB
S113011090E0AC0102C0440F551F6A95E2F7BA01A2
S1130120609562236ABB0895413069F427B381E086
S113013090E0AC0102C0440F551F6A95E2F7BA0182
S1130140622B67BB089527B381E090E0AC0102C045
S1130150440F551F6A95E2F7BA016095622367BBA5
S11301600895413069F424B381E090E0AC0102C009
S1130170440F551F6A95E2F7BA01622B64BB0895D8
S113018024B381E090E0AC0102C0440F551F6A958E
S1130190E2F7BA016095622364BB0895413069F4C3
S11301A021B381E090E0AC0102C0440F551F6A9571
S11301B0E2F7BA01622B61BB089521B381E090E0BC
S11301C0AC0102C0440F551F6A95E2F7BA0160956D
S11301D0622361BB0895843409F471C0853448F402
S11301E0823499F1833408F04DC0813409F083C01E
S11301F00FC0823651F1833620F4813609F07BC07A
S113020007C0833609F43EC0843609F074C057C071
S1130210413069F42BB381E090E0AC0102C0440F9B
S1130220551F6A95E2F7BA01622B6BBB08952BB395
S113023081E090E0AC0102C0440F551F6A95E2F7DB
S1130240BA01609562236BBB0895413069F428B309
S113025081E090E0AC0102C0440F551F6A95E2F7BB
S1130260BA01622B68BB089528B381E090E0AC0129
S113027002C0440F551F6A95E2F7BA0160956223E4
S113028068BB0895413069F425B381E090E0AC0186
S113029002C0440F551F6A95E2F7BA01622B65BB91
S11302A0089525B381E090E0AC0102C0440F551FCE
S11302B06A95E2F7BA016095622365BB08954130FF
S11302C069F422B381E090E0AC0102C0440F551FF1
S11302D06A95E2F7BA01622B62BB089522B381E00A
S11302E090E0AC0102C0440F551F6A95E2F7BA01D1
S11302F06095622362BB0895843409F43DC085345B
S113030040F48234F9F0833450F5813409F040C06C
S11303100CC08236B9F0833618F48136C9F505C0AD
S11303208336E9F08436A1F527C02BB381E090E051
S1130330AC0102C0440F551F6A95E2F7BA01622767
S11303406BBB089528B381E090E0AC0102C0440F78
S1130350551F6A95E2F7BA01622768BB089525B371
S113036081E090E0AC0102C0440F551F6A95E2F7AA
S1130370BA01622765BB089522B381E090E0AC0125
S113038002C0440F551F6A95E2F7BA01622762BBA7
S11303900895843409F451C0853440F4823439F129
S11303A08334C0F5813409F05AC00EC08236F9F0A6
S11303B0833620F4813609F052C006C0833651F1E9
S11303C0843609F04CC039C029B381E090E0062E90
S11303D002C0880F991F0A94E2F730E08223932326
S11303E002C0959587956A95E2F7982F38C026B391
S11303F081E090E0062E02C0880F991F0A94E2F76C
S113040030E08223932302C0959587956A95E2F79D
S1130410982F25C023B381E090E0062E02C0880FF8
S1130420991F0A94E2F730E08223932302C0959542
S113043087956A95E2F7982F12C020B381E090E087
S1130440062E02C0880F991F0A94E2F730E0822337
S1130450932302C0959587956A95E2F7982F892F83
S113046008958434D9F0853438F4823499F083348F
S113047098F48134A1F40CC0823661F0833618F408
S1130480813669F405C0833639F0843641F406C0F8
S11304906ABB089567BB089564BB089561BB089562
S11304A08434B1F0853438F4823471F0833470F4D8
S11304B0813479F407C0833649F0843649F08236B2
S11304C041F402C06BBB089568BB089565BB0895F1
S11304D062BB08958434D9F0853438F4823499F0B9
S11304E0833498F48134A1F40CC0823661F08336ED
S11304F018F4813669F405C0833639F0843641F442
S113050006C099B305C096B303C093B301C096B3B4
S1130510892F0895843409F1853438F48234A9F09C
S11305208334B8F48134E1F40CC0823671F083363C
S113053018F48136A9F405C0833659F0843681F461
S11305400CC08BB380958BBB089588B3809588BB12
S1130550089585B3809585BB089582B3809582BB49
S11305600895843409F471C0853448F4823499F1CF
S1130570833408F04DC0813409F083C00FC0823643
S113058051F1833620F4813609F07BC007C08336ED
S113059009F43EC0843609F074C057C0413069F490
S11305A02BB381E090E0AC0102C0440F551F6A9563
S11305B0E2F7BA01622B6BBB08952BB381E090E0A4
S11305C0AC0102C0440F551F6A95E2F7BA01609569
S11305D062236BBB0895413069F428B381E090E055
S11305E0AC0102C0440F551F6A95E2F7BA01622BB1
S11305F068BB089528B381E090E0AC0102C0440FC9
S1130600551F6A95E2F7BA016095622368BB0895A5
S1130610413069F425B381E090E0AC0102C0440F9D
S1130620551F6A95E2F7BA01622B65BB089525B39D
S113063081E090E0AC0102C0440F551F6A95E2F7D7
S1130640BA016095622365BB0895413069F422B311
S113065081E090E0AC0102C0440F551F6A95E2F7B7
S1130660BA01622B62BB089522B381E090E0AC0131
S113067002C0440F551F6A95E2F7BA0160956223E0
S113068062BB08956F70843451F1853438F4823438
S1130690C1F08334E8F4813441F50CC0823689F02A
S11306A0833618F4813609F505C0833689F084361B
S11306B0E1F415C08BB3807F8BBB8BB3682B6BBB12
S11306C0089588B3807F88BB88B3682B68BB08957E
S11306D085B3807F85BB85B3682B65BB089582B3E2
S11306E0807F82BB82B3682B62BB08956295607F72
S11306F0843451F1853438F48234C1F08334E8F41D
S1130700813441F50CC0823689F0833618F4813681
S113071009F505C0833689F08436E1F415C08BB33E
S11307208F708BBB8BB3682B6BBB089588B38F70B2
S113073088BB88B3682B68BB089585B38F7085BB6D
S113074085B3682B65BB089582B38F7082BB82B377
S1130750682B62BB089584B7806884BF84B78068BF
S113076084BF60E875E280E090E00E94F40784E4CE
S113077067E00E94E60681E461E041E00E945A00DD
S113078084E464E040E00E945A0084E466E040E0CF
S11307900E945A0083E462E040E00E945A0083E42D
S11307A064E040E00E945A0084E463E00E94080789
S11307B00E9449000E94310680E690E00E94B20641
S11307C08FEF9DE3A9E481509040A040E1F700C081
S11307D0000084E467E00E94EA06C0E0D0E0BE01C5
S11307E0882777FD8095982F0E94CA080E94F906F1
S11307F0AFE0B7E21197F1F700C000002196CB35C6
S1130800D10569F784E467E00E94EE06CAE5D0E00A
S1130810BE01882777FD8095982F0E94CA080E9400
S1130820F9068FE097E20197F1F700C000002197E5
S11308309FEFCF3FD90761F70E94C1060E94BC0712
S1130840552444243324AA24882499240F2EFDE615
S11308506F2EF0E07F2EF02DCA2CF32C0E944F0057
S1130860DC01BD01882777FD8095982F0E94CA0876
S113087020E030E040E85EE30E945A090E949C08B0
S1130880DC01CB015C0184E463E00E9413078C016A
S113089083E462E00E94C901D82E83E464E00E94EC
S11308A0C901E82EBCE3AB16B10408F467C081E4C7
S11308B061E041E00E94EB0084E467E00E94EA0604
S11308C0E401BE01882777FD8095982F0E94CA080D
S11308D00E94F9068FE097E20197F1F700C000004B
S11308E02196CB35D10569F70E94C106C3010E9448
S11308F0B2060E944F00DC01BD01882777FD809578
S1130900982F0E94CA0820E030E040E85EE30E948D
S11309105A0920E030E040E752E40E945609882357
S113092044F781E461E040E00E94EB000E94C106CC
S113093084E464E00E94C9018823D1F384E466E07E
S11309400E94C9018823A1F384E467E00E94EE06B3
S1130950CAE5D0E0BE01882777FD8095982F0E94D4
S1130960CA080E94F9068FE097E20197F1F700C0E8
S1130970000021979FEFCF3FD90761F70B30110596
S113098020F40130110521F404C05524539401C00E
S11309905524C1E0EE2009F4C0E081E0DD2009F433
S11309A080E0C80FCC19C50D8091B2009091B300BE
S11309B08C35910589F5CF1579F10E94C10680E047
S11309C060E00E94CB068AE790E00E94B20680E0D5
S11309D06CE00E94CB06DC2FC43008F0D3E08D2FEE
S11309E0805D0E94900681E060E00E94CB0688E86A
S11309F090E00E94B206C5016AE070E00E94000A1D
S1130A00082F862F805D0E949006802F805D0E94B3
S1130A109006FC2ECD2FCC2484E464E00E94C9010E
S1130A20882309F05EC0332049F10E941B088336F5
S1130A3009F057C0FC2EF39484E467E00E94EE06AC
S1130A40CAE5D0E0BE01882777FD8095982F0E94E3
S1130A50CA080E94F906AFE0B7E21197F1F700C0A7
S1130A6000002197BFEFCF3FDB0761F784E464E028
S1130A700E94C9018823D1F3332433C080E990E074
S1130A800E941F080E941B088F3659F50E94C10658
S1130A9080E060E00E94CB0688E990E00E94B20604
S1130AA0C39484E467E00E94EA06E401BE01882757
S1130AB077FD8095982F0E94CA080E94F9068FE05E
S1130AC097E20197F1F700C000002196CB35D105DC
S1130AD069F784E466E00E94C9018823D1F74424BD
S1130AE0439484E466E00E94C901882309F0B6CEE9
S1130AF0442039F10E941B08833609F0AFCE84E408
S1130B0067E00E94EE06CAE5D0E0BE01882777FDC3
S1130B108095982F0E94CA080E94F906AFE0B7E2B8
S1130B201197F1F700C000002197BFEFCF3FDB071B
S1130B3061F784E466E00E94C9018823D1F3442468
S1130B408DCE83EA90E00E941F080E941B088F3616
S1130B5009F084CE0E94C10680E060E00E94CB06CA
S1130B6087EA90E00E94B20684E467E00E94EA0605
S1130B70E401BE01882777FD8095982F0E94CA085A
S1130B800E94F9068FE097E20197F1F700C0000098
S1130B902196CB35D10569F784E464E00E94C9014C
S1130BA08823D1F73324339459CE1F920F920FB672
S1130BB00F9211248F939F938091B2009091B30070
S1130BC08C35910529F414BC1092B3001092B20034
S1130BD08091B2009091B30001969093B3008093FA
S1130BE0B2009F918F910F900FBE0F901F90189598
S1130BF082E460E041E00E94EB008FE99FE001970E
S1130C00F1F700C0000082E460E040E00E94EB00E5
S1130C108FE99FE00197F1F700C000000895CF939A
S1130C20C82F682F62956F7081E40E94760382E476
S1130C3061E040E00E94EB000E94F80581E46C2F23
S1130C400E94760382E461E040E00E94EB000E948F
S1130C50F8058FEC97E00197F1F700C00000CF9101
S1130C6008958FEF91EEA4E081509040A040E1F709
S1130C7000C0000081E464E041E00E945A0081E485
S1130C8065E041E00E945A0081E466E041E00E9490
S1130C905A0081E467E041E00E945A0082E460E087
S1130CA041E00E945A0082E462E041E00E945A005E
S1130CB082E461E041E00E945A0082E462E040E0A4
S1130CC00E94EB0082E00E940F06AFE1BEE41197A0
S1130CD0F1F700C0000088E20E940F068FEC97E055
S1130CE00197F1F700C000008FE00E940F06AFECFF
S1130CF0B7E01197F1F700C0000081E00E940F06F1
S1130D008FE19EE40197F1F700C0000086E00E94A5
S1130D100F06AFECB7E01197F1F700C0000008959B
S1130D20CF93C82F682F62956F7081E40E94760379
S1130D3082E461E041E00E94EB000E94F80581E456
S1130D406C2F0E94760382E461E041E00E94EB0094
S1130D500E94F8058FEC97E00197F1F700C00000BE
S1130D60CF910895CF93DF93EC018881882331F0EC
S1130D7021960E94900689918823D9F7DF91CF911B
S1130D80089581E00E940F068FE19EE40197F1F738
S1130D9000C000000895823060F4603160F488235C
S1130DA019F4962F905808C0813031F4962F90543E
S1130DB003C090E801C090E8892F0E940F068FECD1
S1130DC097E00197F1F700C00000089541E00E9408
S1130DD05A00089541E00E94EB00089540E00E940B
S1130DE0EB0008950E947C01089541E00E945A009E
S1130DF0089521E63BE046EB5BE30E945A0929EBA8
S1130E003CEF4FEB5FE30E9438080E94D30708953C
S1130E1041E00E945A0078948BB780648BBF85B7F9
S1130E20816085BF0895CF93DF93D82FC62F80911B
S1130E30B1008823D1F48D2F41E00E94EB0088E2B9
S1130E408A95F1F78D2F6C2F40E00E94EB0081E032
S1130E508093B10083BF89B7816089BF2091B400BA
S1130E603091B500822F932F00C0DF91CF91089568
S1130E701F920F920FB60F9211242F933F934F930B
S1130E805F936F937F938F939F93AF93BF93EF93EE
S1130E90FF938091B1008130A1F58091B000882347
S1130EA049F412BE81E08093B0001092AF0010921A
S1130EB0AE0027C06091AE007091AF0082B7762F6C
S1130EC06627680F711D80E090E028E237E840E073
S1130ED050E00E94E10920E034E244EF50E00E9437
S1130EE0140A3093B5002093B4008FE295E701977C
S1130EF0F1F700C000001092AF001092AE00109203
S1130F00B000FF91EF91BF91AF919F918F917F912D
S1130F106F915F914F913F912F910F900FBE0F9062
S1130F201F9018951F920F920FB60F9211242F93B2
S1130F308F939F938091AE009091AF000196909310
S1130F40AF008093AE008091AE009091AF0023E09B
S1130F50883E920749F412BE1092B1001092B0007C
S1130F601092AF001092AE009F918F912F910F902D
S1130F700FBE0F901F901895789487E085BD89B7B0
S1130F80806489BF089583B7886083BF80E58CBF80
S1130F9083B7816083BF83B7846083BF789489B744
S1130FA0826089BF08958D9A2EB520612EBD2EB51D
S1130FB028602EBD2FB522602FBD20E030E04AE727
S1130FC054E40E945A090E949C08DC01CB019BBD99
S1130FD08ABD8FE19EE497BD86BD8EB582608EBDCD
S1130FE08FB580688FBD0895DC01CB01880F991FF0
S1130FF0AA1FBB1F880F991FAA1FBB1F9C01AD010D
S1131000220F331F441F551F220F331F441F551F28
S113101060E072E18AE790E00E94140A21503040B7
S113102030BD29B9539A549A86E880BD08955D9BD2
S1131030FECF8CB908955F9BFECF8CB10895CF93FA
S1131040DF93EC018881882379F021960E941708A8
S11310508FEF90E7A2E081509040A040E1F700C0FC
S113106000008991882391F7DF91CF91089550581A
S1131070BB27AA270ED0E0C0D1D030F0D6D020F0C4
S113108031F49F3F11F41EF4C6C00EF4E095E7FB63
S1131090BCC0E92FE2D080F3BA1762077307840754
S11310A0950718F071F49EF5FAC00EF4E0950B2E36
S11310B0BA2FA02D0B01B90190010C01CA01A001A6
S11310C01124FF27591B99F0593F50F4503E68F101
S11310D01A16F040A22F232F342F4427585FF3CF42
S11310E0469537952795A795F0405395C9F77EF413
S11310F01F16BA0B620B730B840BBAF09150A1F05C
S1131100FF0FBB1F661F771F881FC2F70EC0BA0FE1
S1131110621F731F841F48F4879577956795B79569
S1131120F7959E3F08F0B3CF9395880F08F0992761
S1131130EE0F97958795089598D088F09F5790F073
S1131140B92F9927B751A0F0D1F0660F771F881FE8
S1131150991F1AF0BA95C9F712C0B13081F09FD027
S1131160B1E008959CC0672F782F8827B85F39F0C5
S1131170B93FCCF3869577956795B395D9F73EF447
S113118090958095709561957F4F8F4F9F4F0895EF
S1131190E89409C097FB3EF490958095709561950D
S11311A07F4F8F4F9F4F9923A9F0F92F96E9BB27C3
S11311B09395F695879577956795B795F111F8CF3F
S11311C0FAF4BB0F11F460FF1BC06F5F7F4F8F4FAA
S11311D09F4F16C0882311F096E911C0772321F0A0
S11311E09EE8872F762F05C0662371F096E8862F38
S11311F070E060E02AF09A95660F771F881FDAF78F
S1131200880F9695879597F9089597F99F6780E8D1
S113121070E060E008959FEF80EC089500240A9444
S11312201616170618060906089500240A941216BD
S11312301306140605060895092E0394000C11F4F0
S1131240882352F0BB0F40F4BF2B11F460FF04C09D
S11312506F5F7F4F8F4F9F4F089557FD9058440FF6
S1131260551F59F05F3F71F04795880F97FB991F01
S113127061F09F3F79F087950895121613061406BE
S1131280551FF2CF4695F1DF08C01616170618064B
S1131290991FF1CF86957105610508940895E89426
S11312A0BB2766277727CB0197F9089566D008F402
S11312B08FEF08950BD0C0CFB1DF28F0B6DF18F060
S11312C0952309F0A2CFA7CF1124EACFC6DFA0F35C
S11312D0959FD1F3950F50E0551F629FF001729FC7
S11312E0BB27F00DB11D639FAA27F00DB11DAA1FE6
S11312F0649F6627B00DA11D661F829F2227B00D33
S1131300A11D621F739FB00DA11D621F839FA00DBD
S1131310611D221F749F3327A00D611D231F849F0D
S1131320600D211D822F762F6A2F11249F57504064
S11313308AF0E1F088234AF0EE0FFF1FBB1F661FFF
S1131340771F881F91505040A9F79E3F510570F0B8
S11313505CCFA6CF5F3FECF3983EDCF386957795A0
S11313606795B795F795E7959F5FC1F7FE2B880FB3
S1131370911D9695879597F90895990F0008550F33
S1131380AA0BE0E8FEEF16161706E807F907C0F007
S113139012161306E407F50798F0621B730B840B0F
S11313A0950B39F40A2661F0232B242B252B21F4E9
S11313B008950A2609F4A140A6958FEF811D811D89
S11313C00895629FD001739FF001829FE00DF11D8B
S11313D0649FE00DF11D929FF00D839FF00D749FAB
S11313E0F00D659FF00D9927729FB00DE11DF91F57
S11313F0639FB00DE11DF91FBD01CF0111240895B4
S1131400AA1BBB1B51E107C0AA1FBB1FA617B70726
S113141010F0A61BB70B881F991F5A95A9F7809542
S11314209095BC01CD010895A1E21A2EAA1BBB1B05
S1131430FD010DC0AA1FBB1FEE1FFF1FA217B3079C
S1131440E407F50720F0A21BB30BE40BF50B661FB2
S1131450771F881F991F1A9469F760957095809576
S113146090959B01AC01BD01CF010895F894FFCF85
S11314704D4541535552454D454E545300466972AE
S11314806520416C61726D20210046726565207390
S11314906C6F7473203A200074656D70203D2000D9
S11314A057656C636F6D650057656C636F6D652080
S11114B03A290042796500427965203A290004
S9030000FC
